{"contracts/Contract.sol":{"Contract":{"abi":[{"inputs":[],"stateMutability":"nonpayable","type":"constructor"},{"inputs":[{"internalType":"uint256","name":"id","type":"uint256"},{"internalType":"string","name":"D","type":"string"}],"name":"addOperation","outputs":[],"stateMutability":"nonpayable","type":"function"},{"inputs":[{"internalType":"address","name":"op","type":"address"}],"name":"addToWhitelist","outputs":[],"stateMutability":"nonpayable","type":"function"},{"inputs":[{"internalType":"uint256","name":"id","type":"uint256"}],"name":"delReq","outputs":[],"stateMutability":"nonpayable","type":"function"},{"inputs":[],"name":"getOperations","outputs":[{"components":[{"internalType":"uint256","name":"id","type":"uint256"},{"internalType":"string","name":"data","type":"string"},{"internalType":"uint256","name":"status","type":"uint256"}],"internalType":"struct Contract.OperationData[]","name":"","type":"tuple[]"}],"stateMutability":"view","type":"function"},{"inputs":[{"internalType":"uint256","name":"un","type":"uint256"}],"name":"getSOSNum","outputs":[{"internalType":"uint256","name":"","type":"uint256"}],"stateMutability":"view","type":"function"},{"inputs":[],"name":"isWhiteListed","outputs":[{"internalType":"bool","name":"","type":"bool"}],"stateMutability":"view","type":"function"},{"inputs":[{"internalType":"address","name":"op","type":"address"}],"name":"removeFromWhitelist","outputs":[],"stateMutability":"nonpayable","type":"function"},{"inputs":[{"internalType":"uint256","name":"un","type":"uint256"},{"internalType":"uint256","name":"sn","type":"uint256"}],"name":"setSOSNum","outputs":[],"stateMutability":"nonpayable","type":"function"},{"inputs":[{"internalType":"uint256","name":"id","type":"uint256"},{"internalType":"uint256","name":"s","type":"uint256"}],"name":"setStatus","outputs":[],"stateMutability":"nonpayable","type":"function"}],"evm":{"bytecode":{"linkReferences":{},"object":"6080604052600060055534801561001557600080fd5b50600080546001600160a01b0319163390811782558152600160208190526040909120805460ff19169091179055610aa9806100526000396000f3fe608060405234801561001057600080fd5b50600436106100935760003560e01c8063c5024b5311610066578063c5024b53146100f3578063cbe7692214610106578063e43252d714610139578063ef674e661461014c578063f948e50a1461016f57600080fd5b806317d90dd21461009857806382e40813146100ad5780638ab1d681146100c0578063b7368f50146100d3575b600080fd5b6100ab6100a6366004610703565b610184565b005b6100ab6100bb36600461071c565b6101fe565b6100ab6100ce36600461073e565b61023f565b6100ab6100e136600461071c565b60009182526007602052604090912055565b6100ab61010136600461076e565b6102cf565b610126610114366004610703565b60009081526007602052604090205490565b6040519081526020015b60405180910390f35b6100ab61014736600461073e565b610364565b3360009081526001602052604090205460ff166040519015158152602001610130565b6101776103e5565b60405161013091906107ea565b6000546001600160a01b031633146101e35760405162461bcd60e51b815260206004820152601f60248201527f4f6e6c79204f776e65722063616e2064656c657465205265717565737473210060448201526064015b60405180910390fd5b6000908152600660205260409020805460ff19166001179055565b3360009081526001602052604090205460ff1661022d5760405162461bcd60e51b81526004016101da9061089f565b60009182526004602052604090912055565b6000546001600160a01b031633146102ae5760405162461bcd60e51b815260206004820152602c60248201527f4f6e6c79204f776e65722063616e2072656d6f7665206f74686572732066726f60448201526b6d2057686974656c6973742160a01b60648201526084016101da565b6001600160a01b03166000908152600160205260409020805460ff19169055565b3360009081526001602052604090205460ff166102fe5760405162461bcd60e51b81526004016101da9061089f565b6002805460018101825560009182527f405787fa12a823e0f2b7631cc41b3ba8828b3321ca811111fa75cd3aa3bb5ace018490556005805491610340836108d6565b9091555050600083815260036020526040902061035e82848361099c565b50505050565b6000546001600160a01b031633146103be5760405162461bcd60e51b815260206004820181905260248201527f4f6e6c79204f776e65722063616e2077686974656c697374206f74686572732160448201526064016101da565b6001600160a01b03166000908152600160208190526040909120805460ff19169091179055565b3360009081526001602052604090205460609060ff166104175760405162461bcd60e51b81526004016101da9061089f565b600060055467ffffffffffffffff811115610434576104346108fd565b60405190808252806020026020018201604052801561048957816020015b61047660405180606001604052806000815260200160608152602001600081525090565b8152602001906001900390816104525790505b5090506000805b6005548110156106325760066000600283815481106104b1576104b1610a5d565b6000918252602080832090910154835282019290925260400190205460ff16610620576040518060600160405280600283815481106104f2576104f2610a5d565b90600052602060002001548152602001600360006002858154811061051957610519610a5d565b90600052602060002001548152602001908152602001600020805461053d90610913565b80601f016020809104026020016040519081016040528092919081815260200182805461056990610913565b80156105b65780601f1061058b576101008083540402835291602001916105b6565b820191906000526020600020905b81548152906001019060200180831161059957829003601f168201915b5050505050815260200160046000600285815481106105d7576105d7610a5d565b906000526020600020015481526020019081526020016000205481525083838151811061060657610606610a5d565b6020026020010181905250818061061c906108d6565b9250505b8061062a816108d6565b915050610490565b5060008167ffffffffffffffff81111561064e5761064e6108fd565b6040519080825280602002602001820160405280156106a357816020015b61069060405180606001604052806000815260200160608152602001600081525090565b81526020019060019003908161066c5790505b50905060005b828110156106fb578381815181106106c3576106c3610a5d565b60200260200101518282815181106106dd576106dd610a5d565b602002602001018190525080806106f3906108d6565b9150506106a9565b509392505050565b60006020828403121561071557600080fd5b5035919050565b6000806040838503121561072f57600080fd5b50508035926020909101359150565b60006020828403121561075057600080fd5b81356001600160a01b038116811461076757600080fd5b9392505050565b60008060006040848603121561078357600080fd5b83359250602084013567ffffffffffffffff808211156107a257600080fd5b818601915086601f8301126107b657600080fd5b8135818111156107c557600080fd5b8760208285010111156107d757600080fd5b6020830194508093505050509250925092565b60006020808301818452808551808352604092508286019150828160051b8701018488016000805b8481101561089057603f198a8503018652825160608151865289820151818b880152805180838901528592505b8083101561085d578183018c015188840160800152918b019161083f565b8781016080908101879052938b01518b890152988b0198601f01601f191690960190910194505091870191600101610812565b50919998505050505050505050565b60208082526018908201527f596f7520617265206e6f742077686974656c6973746564210000000000000000604082015260600190565b6000600182016108f657634e487b7160e01b600052601160045260246000fd5b5060010190565b634e487b7160e01b600052604160045260246000fd5b600181811c9082168061092757607f821691505b60208210810361094757634e487b7160e01b600052602260045260246000fd5b50919050565b601f82111561099757600081815260208120601f850160051c810160208610156109745750805b601f850160051c820191505b8181101561099357828155600101610980565b5050505b505050565b67ffffffffffffffff8311156109b4576109b46108fd565b6109c8836109c28354610913565b8361094d565b6000601f8411600181146109fc57600085156109e45750838201355b600019600387901b1c1916600186901b178355610a56565b600083815260209020601f19861690835b82811015610a2d5786850135825560209485019460019092019101610a0d565b5086821015610a4a5760001960f88860031b161c19848701351681555b505060018560011b0183555b5050505050565b634e487b7160e01b600052603260045260246000fdfea2646970667358221220f92e9fa960c92c3849e4bbe230e53d612918fe4f58df396fcb4e85c56024050264736f6c63430008110033","opcodes":"PUSH1 0x80 PUSH1 0x40 MSTORE PUSH1 0x0 PUSH1 0x5 SSTORE CALLVALUE DUP1 ISZERO PUSH2 0x15 JUMPI PUSH1 0x0 DUP1 REVERT JUMPDEST POP PUSH1 0x0 DUP1 SLOAD PUSH1 0x1 PUSH1 0x1 PUSH1 0xA0 SHL SUB NOT AND CALLER SWAP1 DUP2 OR DUP3 SSTORE DUP2 MSTORE PUSH1 0x1 PUSH1 0x20 DUP2 SWAP1 MSTORE PUSH1 0x40 SWAP1 SWAP2 KECCAK256 DUP1 SLOAD PUSH1 0xFF NOT AND SWAP1 SWAP2 OR SWAP1 SSTORE PUSH2 0xAA9 DUP1 PUSH2 0x52 PUSH1 0x0 CODECOPY PUSH1 0x0 RETURN INVALID PUSH1 0x80 PUSH1 0x40 MSTORE CALLVALUE DUP1 ISZERO PUSH2 0x10 JUMPI PUSH1 0x0 DUP1 REVERT JUMPDEST POP PUSH1 0x4 CALLDATASIZE LT PUSH2 0x93 JUMPI PUSH1 0x0 CALLDATALOAD PUSH1 0xE0 SHR DUP1 PUSH4 0xC5024B53 GT PUSH2 0x66 JUMPI DUP1 PUSH4 0xC5024B53 EQ PUSH2 0xF3 JUMPI DUP1 PUSH4 0xCBE76922 EQ PUSH2 0x106 JUMPI DUP1 PUSH4 0xE43252D7 EQ PUSH2 0x139 JUMPI DUP1 PUSH4 0xEF674E66 EQ PUSH2 0x14C JUMPI DUP1 PUSH4 0xF948E50A EQ PUSH2 0x16F JUMPI PUSH1 0x0 DUP1 REVERT JUMPDEST DUP1 PUSH4 0x17D90DD2 EQ PUSH2 0x98 JUMPI DUP1 PUSH4 0x82E40813 EQ PUSH2 0xAD JUMPI DUP1 PUSH4 0x8AB1D681 EQ PUSH2 0xC0 JUMPI DUP1 PUSH4 0xB7368F50 EQ PUSH2 0xD3 JUMPI JUMPDEST PUSH1 0x0 DUP1 REVERT JUMPDEST PUSH2 0xAB PUSH2 0xA6 CALLDATASIZE PUSH1 0x4 PUSH2 0x703 JUMP JUMPDEST PUSH2 0x184 JUMP JUMPDEST STOP JUMPDEST PUSH2 0xAB PUSH2 0xBB CALLDATASIZE PUSH1 0x4 PUSH2 0x71C JUMP JUMPDEST PUSH2 0x1FE JUMP JUMPDEST PUSH2 0xAB PUSH2 0xCE CALLDATASIZE PUSH1 0x4 PUSH2 0x73E JUMP JUMPDEST PUSH2 0x23F JUMP JUMPDEST PUSH2 0xAB PUSH2 0xE1 CALLDATASIZE PUSH1 0x4 PUSH2 0x71C JUMP JUMPDEST PUSH1 0x0 SWAP2 DUP3 MSTORE PUSH1 0x7 PUSH1 0x20 MSTORE PUSH1 0x40 SWAP1 SWAP2 KECCAK256 SSTORE JUMP JUMPDEST PUSH2 0xAB PUSH2 0x101 CALLDATASIZE PUSH1 0x4 PUSH2 0x76E JUMP JUMPDEST PUSH2 0x2CF JUMP JUMPDEST PUSH2 0x126 PUSH2 0x114 CALLDATASIZE PUSH1 0x4 PUSH2 0x703 JUMP JUMPDEST PUSH1 0x0 SWAP1 DUP2 MSTORE PUSH1 0x7 PUSH1 0x20 MSTORE PUSH1 0x40 SWAP1 KECCAK256 SLOAD SWAP1 JUMP JUMPDEST PUSH1 0x40 MLOAD SWAP1 DUP2 MSTORE PUSH1 0x20 ADD JUMPDEST PUSH1 0x40 MLOAD DUP1 SWAP2 SUB SWAP1 RETURN JUMPDEST PUSH2 0xAB PUSH2 0x147 CALLDATASIZE PUSH1 0x4 PUSH2 0x73E JUMP JUMPDEST PUSH2 0x364 JUMP JUMPDEST CALLER PUSH1 0x0 SWAP1 DUP2 MSTORE PUSH1 0x1 PUSH1 0x20 MSTORE PUSH1 0x40 SWAP1 KECCAK256 SLOAD PUSH1 0xFF AND PUSH1 0x40 MLOAD SWAP1 ISZERO ISZERO DUP2 MSTORE PUSH1 0x20 ADD PUSH2 0x130 JUMP JUMPDEST PUSH2 0x177 PUSH2 0x3E5 JUMP JUMPDEST PUSH1 0x40 MLOAD PUSH2 0x130 SWAP2 SWAP1 PUSH2 0x7EA JUMP JUMPDEST PUSH1 0x0 SLOAD PUSH1 0x1 PUSH1 0x1 PUSH1 0xA0 SHL SUB AND CALLER EQ PUSH2 0x1E3 JUMPI PUSH1 0x40 MLOAD PUSH3 0x461BCD PUSH1 0xE5 SHL DUP2 MSTORE PUSH1 0x20 PUSH1 0x4 DUP3 ADD MSTORE PUSH1 0x1F PUSH1 0x24 DUP3 ADD MSTORE PUSH32 0x4F6E6C79204F776E65722063616E2064656C6574652052657175657374732100 PUSH1 0x44 DUP3 ADD MSTORE PUSH1 0x64 ADD JUMPDEST PUSH1 0x40 MLOAD DUP1 SWAP2 SUB SWAP1 REVERT JUMPDEST PUSH1 0x0 SWAP1 DUP2 MSTORE PUSH1 0x6 PUSH1 0x20 MSTORE PUSH1 0x40 SWAP1 KECCAK256 DUP1 SLOAD PUSH1 0xFF NOT AND PUSH1 0x1 OR SWAP1 SSTORE JUMP JUMPDEST CALLER PUSH1 0x0 SWAP1 DUP2 MSTORE PUSH1 0x1 PUSH1 0x20 MSTORE PUSH1 0x40 SWAP1 KECCAK256 SLOAD PUSH1 0xFF AND PUSH2 0x22D JUMPI PUSH1 0x40 MLOAD PUSH3 0x461BCD PUSH1 0xE5 SHL DUP2 MSTORE PUSH1 0x4 ADD PUSH2 0x1DA SWAP1 PUSH2 0x89F JUMP JUMPDEST PUSH1 0x0 SWAP2 DUP3 MSTORE PUSH1 0x4 PUSH1 0x20 MSTORE PUSH1 0x40 SWAP1 SWAP2 KECCAK256 SSTORE JUMP JUMPDEST PUSH1 0x0 SLOAD PUSH1 0x1 PUSH1 0x1 PUSH1 0xA0 SHL SUB AND CALLER EQ PUSH2 0x2AE JUMPI PUSH1 0x40 MLOAD PUSH3 0x461BCD PUSH1 0xE5 SHL DUP2 MSTORE PUSH1 0x20 PUSH1 0x4 DUP3 ADD MSTORE PUSH1 0x2C PUSH1 0x24 DUP3 ADD MSTORE PUSH32 0x4F6E6C79204F776E65722063616E2072656D6F7665206F74686572732066726F PUSH1 0x44 DUP3 ADD MSTORE PUSH12 0x6D2057686974656C69737421 PUSH1 0xA0 SHL PUSH1 0x64 DUP3 ADD MSTORE PUSH1 0x84 ADD PUSH2 0x1DA JUMP JUMPDEST PUSH1 0x1 PUSH1 0x1 PUSH1 0xA0 SHL SUB AND PUSH1 0x0 SWAP1 DUP2 MSTORE PUSH1 0x1 PUSH1 0x20 MSTORE PUSH1 0x40 SWAP1 KECCAK256 DUP1 SLOAD PUSH1 0xFF NOT AND SWAP1 SSTORE JUMP JUMPDEST CALLER PUSH1 0x0 SWAP1 DUP2 MSTORE PUSH1 0x1 PUSH1 0x20 MSTORE PUSH1 0x40 SWAP1 KECCAK256 SLOAD PUSH1 0xFF AND PUSH2 0x2FE JUMPI PUSH1 0x40 MLOAD PUSH3 0x461BCD PUSH1 0xE5 SHL DUP2 MSTORE PUSH1 0x4 ADD PUSH2 0x1DA SWAP1 PUSH2 0x89F JUMP JUMPDEST PUSH1 0x2 DUP1 SLOAD PUSH1 0x1 DUP2 ADD DUP3 SSTORE PUSH1 0x0 SWAP2 DUP3 MSTORE PUSH32 0x405787FA12A823E0F2B7631CC41B3BA8828B3321CA811111FA75CD3AA3BB5ACE ADD DUP5 SWAP1 SSTORE PUSH1 0x5 DUP1 SLOAD SWAP2 PUSH2 0x340 DUP4 PUSH2 0x8D6 JUMP JUMPDEST SWAP1 SWAP2 SSTORE POP POP PUSH1 0x0 DUP4 DUP2 MSTORE PUSH1 0x3 PUSH1 0x20 MSTORE PUSH1 0x40 SWAP1 KECCAK256 PUSH2 0x35E DUP3 DUP5 DUP4 PUSH2 0x99C JUMP JUMPDEST POP POP POP POP JUMP JUMPDEST PUSH1 0x0 SLOAD PUSH1 0x1 PUSH1 0x1 PUSH1 0xA0 SHL SUB AND CALLER EQ PUSH2 0x3BE JUMPI PUSH1 0x40 MLOAD PUSH3 0x461BCD PUSH1 0xE5 SHL DUP2 MSTORE PUSH1 0x20 PUSH1 0x4 DUP3 ADD DUP2 SWAP1 MSTORE PUSH1 0x24 DUP3 ADD MSTORE PUSH32 0x4F6E6C79204F776E65722063616E2077686974656C697374206F746865727321 PUSH1 0x44 DUP3 ADD MSTORE PUSH1 0x64 ADD PUSH2 0x1DA JUMP JUMPDEST PUSH1 0x1 PUSH1 0x1 PUSH1 0xA0 SHL SUB AND PUSH1 0x0 SWAP1 DUP2 MSTORE PUSH1 0x1 PUSH1 0x20 DUP2 SWAP1 MSTORE PUSH1 0x40 SWAP1 SWAP2 KECCAK256 DUP1 SLOAD PUSH1 0xFF NOT AND SWAP1 SWAP2 OR SWAP1 SSTORE JUMP JUMPDEST CALLER PUSH1 0x0 SWAP1 DUP2 MSTORE PUSH1 0x1 PUSH1 0x20 MSTORE PUSH1 0x40 SWAP1 KECCAK256 SLOAD PUSH1 0x60 SWAP1 PUSH1 0xFF AND PUSH2 0x417 JUMPI PUSH1 0x40 MLOAD PUSH3 0x461BCD PUSH1 0xE5 SHL DUP2 MSTORE PUSH1 0x4 ADD PUSH2 0x1DA SWAP1 PUSH2 0x89F JUMP JUMPDEST PUSH1 0x0 PUSH1 0x5 SLOAD PUSH8 0xFFFFFFFFFFFFFFFF DUP2 GT ISZERO PUSH2 0x434 JUMPI PUSH2 0x434 PUSH2 0x8FD JUMP JUMPDEST PUSH1 0x40 MLOAD SWAP1 DUP1 DUP3 MSTORE DUP1 PUSH1 0x20 MUL PUSH1 0x20 ADD DUP3 ADD PUSH1 0x40 MSTORE DUP1 ISZERO PUSH2 0x489 JUMPI DUP2 PUSH1 0x20 ADD JUMPDEST PUSH2 0x476 PUSH1 0x40 MLOAD DUP1 PUSH1 0x60 ADD PUSH1 0x40 MSTORE DUP1 PUSH1 0x0 DUP2 MSTORE PUSH1 0x20 ADD PUSH1 0x60 DUP2 MSTORE PUSH1 0x20 ADD PUSH1 0x0 DUP2 MSTORE POP SWAP1 JUMP JUMPDEST DUP2 MSTORE PUSH1 0x20 ADD SWAP1 PUSH1 0x1 SWAP1 SUB SWAP1 DUP2 PUSH2 0x452 JUMPI SWAP1 POP JUMPDEST POP SWAP1 POP PUSH1 0x0 DUP1 JUMPDEST PUSH1 0x5 SLOAD DUP2 LT ISZERO PUSH2 0x632 JUMPI PUSH1 0x6 PUSH1 0x0 PUSH1 0x2 DUP4 DUP2 SLOAD DUP2 LT PUSH2 0x4B1 JUMPI PUSH2 0x4B1 PUSH2 0xA5D JUMP JUMPDEST PUSH1 0x0 SWAP2 DUP3 MSTORE PUSH1 0x20 DUP1 DUP4 KECCAK256 SWAP1 SWAP2 ADD SLOAD DUP4 MSTORE DUP3 ADD SWAP3 SWAP1 SWAP3 MSTORE PUSH1 0x40 ADD SWAP1 KECCAK256 SLOAD PUSH1 0xFF AND PUSH2 0x620 JUMPI PUSH1 0x40 MLOAD DUP1 PUSH1 0x60 ADD PUSH1 0x40 MSTORE DUP1 PUSH1 0x2 DUP4 DUP2 SLOAD DUP2 LT PUSH2 0x4F2 JUMPI PUSH2 0x4F2 PUSH2 0xA5D JUMP JUMPDEST SWAP1 PUSH1 0x0 MSTORE PUSH1 0x20 PUSH1 0x0 KECCAK256 ADD SLOAD DUP2 MSTORE PUSH1 0x20 ADD PUSH1 0x3 PUSH1 0x0 PUSH1 0x2 DUP6 DUP2 SLOAD DUP2 LT PUSH2 0x519 JUMPI PUSH2 0x519 PUSH2 0xA5D JUMP JUMPDEST SWAP1 PUSH1 0x0 MSTORE PUSH1 0x20 PUSH1 0x0 KECCAK256 ADD SLOAD DUP2 MSTORE PUSH1 0x20 ADD SWAP1 DUP2 MSTORE PUSH1 0x20 ADD PUSH1 0x0 KECCAK256 DUP1 SLOAD PUSH2 0x53D SWAP1 PUSH2 0x913 JUMP JUMPDEST DUP1 PUSH1 0x1F ADD PUSH1 0x20 DUP1 SWAP2 DIV MUL PUSH1 0x20 ADD PUSH1 0x40 MLOAD SWAP1 DUP2 ADD PUSH1 0x40 MSTORE DUP1 SWAP3 SWAP2 SWAP1 DUP2 DUP2 MSTORE PUSH1 0x20 ADD DUP3 DUP1 SLOAD PUSH2 0x569 SWAP1 PUSH2 0x913 JUMP JUMPDEST DUP1 ISZERO PUSH2 0x5B6 JUMPI DUP1 PUSH1 0x1F LT PUSH2 0x58B JUMPI PUSH2 0x100 DUP1 DUP4 SLOAD DIV MUL DUP4 MSTORE SWAP2 PUSH1 0x20 ADD SWAP2 PUSH2 0x5B6 JUMP JUMPDEST DUP3 ADD SWAP2 SWAP1 PUSH1 0x0 MSTORE PUSH1 0x20 PUSH1 0x0 KECCAK256 SWAP1 JUMPDEST DUP2 SLOAD DUP2 MSTORE SWAP1 PUSH1 0x1 ADD SWAP1 PUSH1 0x20 ADD DUP1 DUP4 GT PUSH2 0x599 JUMPI DUP3 SWAP1 SUB PUSH1 0x1F AND DUP3 ADD SWAP2 JUMPDEST POP POP POP POP POP DUP2 MSTORE PUSH1 0x20 ADD PUSH1 0x4 PUSH1 0x0 PUSH1 0x2 DUP6 DUP2 SLOAD DUP2 LT PUSH2 0x5D7 JUMPI PUSH2 0x5D7 PUSH2 0xA5D JUMP JUMPDEST SWAP1 PUSH1 0x0 MSTORE PUSH1 0x20 PUSH1 0x0 KECCAK256 ADD SLOAD DUP2 MSTORE PUSH1 0x20 ADD SWAP1 DUP2 MSTORE PUSH1 0x20 ADD PUSH1 0x0 KECCAK256 SLOAD DUP2 MSTORE POP DUP4 DUP4 DUP2 MLOAD DUP2 LT PUSH2 0x606 JUMPI PUSH2 0x606 PUSH2 0xA5D JUMP JUMPDEST PUSH1 0x20 MUL PUSH1 0x20 ADD ADD DUP2 SWAP1 MSTORE POP DUP2 DUP1 PUSH2 0x61C SWAP1 PUSH2 0x8D6 JUMP JUMPDEST SWAP3 POP POP JUMPDEST DUP1 PUSH2 0x62A DUP2 PUSH2 0x8D6 JUMP JUMPDEST SWAP2 POP POP PUSH2 0x490 JUMP JUMPDEST POP PUSH1 0x0 DUP2 PUSH8 0xFFFFFFFFFFFFFFFF DUP2 GT ISZERO PUSH2 0x64E JUMPI PUSH2 0x64E PUSH2 0x8FD JUMP JUMPDEST PUSH1 0x40 MLOAD SWAP1 DUP1 DUP3 MSTORE DUP1 PUSH1 0x20 MUL PUSH1 0x20 ADD DUP3 ADD PUSH1 0x40 MSTORE DUP1 ISZERO PUSH2 0x6A3 JUMPI DUP2 PUSH1 0x20 ADD JUMPDEST PUSH2 0x690 PUSH1 0x40 MLOAD DUP1 PUSH1 0x60 ADD PUSH1 0x40 MSTORE DUP1 PUSH1 0x0 DUP2 MSTORE PUSH1 0x20 ADD PUSH1 0x60 DUP2 MSTORE PUSH1 0x20 ADD PUSH1 0x0 DUP2 MSTORE POP SWAP1 JUMP JUMPDEST DUP2 MSTORE PUSH1 0x20 ADD SWAP1 PUSH1 0x1 SWAP1 SUB SWAP1 DUP2 PUSH2 0x66C JUMPI SWAP1 POP JUMPDEST POP SWAP1 POP PUSH1 0x0 JUMPDEST DUP3 DUP2 LT ISZERO PUSH2 0x6FB JUMPI DUP4 DUP2 DUP2 MLOAD DUP2 LT PUSH2 0x6C3 JUMPI PUSH2 0x6C3 PUSH2 0xA5D JUMP JUMPDEST PUSH1 0x20 MUL PUSH1 0x20 ADD ADD MLOAD DUP3 DUP3 DUP2 MLOAD DUP2 LT PUSH2 0x6DD JUMPI PUSH2 0x6DD PUSH2 0xA5D JUMP JUMPDEST PUSH1 0x20 MUL PUSH1 0x20 ADD ADD DUP2 SWAP1 MSTORE POP DUP1 DUP1 PUSH2 0x6F3 SWAP1 PUSH2 0x8D6 JUMP JUMPDEST SWAP2 POP POP PUSH2 0x6A9 JUMP JUMPDEST POP SWAP4 SWAP3 POP POP POP JUMP JUMPDEST PUSH1 0x0 PUSH1 0x20 DUP3 DUP5 SUB SLT ISZERO PUSH2 0x715 JUMPI PUSH1 0x0 DUP1 REVERT JUMPDEST POP CALLDATALOAD SWAP2 SWAP1 POP JUMP JUMPDEST PUSH1 0x0 DUP1 PUSH1 0x40 DUP4 DUP6 SUB SLT ISZERO PUSH2 0x72F JUMPI PUSH1 0x0 DUP1 REVERT JUMPDEST POP POP DUP1 CALLDATALOAD SWAP3 PUSH1 0x20 SWAP1 SWAP2 ADD CALLDATALOAD SWAP2 POP JUMP JUMPDEST PUSH1 0x0 PUSH1 0x20 DUP3 DUP5 SUB SLT ISZERO PUSH2 0x750 JUMPI PUSH1 0x0 DUP1 REVERT JUMPDEST DUP2 CALLDATALOAD PUSH1 0x1 PUSH1 0x1 PUSH1 0xA0 SHL SUB DUP2 AND DUP2 EQ PUSH2 0x767 JUMPI PUSH1 0x0 DUP1 REVERT JUMPDEST SWAP4 SWAP3 POP POP POP JUMP JUMPDEST PUSH1 0x0 DUP1 PUSH1 0x0 PUSH1 0x40 DUP5 DUP7 SUB SLT ISZERO PUSH2 0x783 JUMPI PUSH1 0x0 DUP1 REVERT JUMPDEST DUP4 CALLDATALOAD SWAP3 POP PUSH1 0x20 DUP5 ADD CALLDATALOAD PUSH8 0xFFFFFFFFFFFFFFFF DUP1 DUP3 GT ISZERO PUSH2 0x7A2 JUMPI PUSH1 0x0 DUP1 REVERT JUMPDEST DUP2 DUP7 ADD SWAP2 POP DUP7 PUSH1 0x1F DUP4 ADD SLT PUSH2 0x7B6 JUMPI PUSH1 0x0 DUP1 REVERT JUMPDEST DUP2 CALLDATALOAD DUP2 DUP2 GT ISZERO PUSH2 0x7C5 JUMPI PUSH1 0x0 DUP1 REVERT JUMPDEST DUP8 PUSH1 0x20 DUP3 DUP6 ADD ADD GT ISZERO PUSH2 0x7D7 JUMPI PUSH1 0x0 DUP1 REVERT JUMPDEST PUSH1 0x20 DUP4 ADD SWAP5 POP DUP1 SWAP4 POP POP POP POP SWAP3 POP SWAP3 POP SWAP3 JUMP JUMPDEST PUSH1 0x0 PUSH1 0x20 DUP1 DUP4 ADD DUP2 DUP5 MSTORE DUP1 DUP6 MLOAD DUP1 DUP4 MSTORE PUSH1 0x40 SWAP3 POP DUP3 DUP7 ADD SWAP2 POP DUP3 DUP2 PUSH1 0x5 SHL DUP8 ADD ADD DUP5 DUP9 ADD PUSH1 0x0 DUP1 JUMPDEST DUP5 DUP2 LT ISZERO PUSH2 0x890 JUMPI PUSH1 0x3F NOT DUP11 DUP6 SUB ADD DUP7 MSTORE DUP3 MLOAD PUSH1 0x60 DUP2 MLOAD DUP7 MSTORE DUP10 DUP3 ADD MLOAD DUP2 DUP12 DUP9 ADD MSTORE DUP1 MLOAD DUP1 DUP4 DUP10 ADD MSTORE DUP6 SWAP3 POP JUMPDEST DUP1 DUP4 LT ISZERO PUSH2 0x85D JUMPI DUP2 DUP4 ADD DUP13 ADD MLOAD DUP9 DUP5 ADD PUSH1 0x80 ADD MSTORE SWAP2 DUP12 ADD SWAP2 PUSH2 0x83F JUMP JUMPDEST DUP8 DUP2 ADD PUSH1 0x80 SWAP1 DUP2 ADD DUP8 SWAP1 MSTORE SWAP4 DUP12 ADD MLOAD DUP12 DUP10 ADD MSTORE SWAP9 DUP12 ADD SWAP9 PUSH1 0x1F ADD PUSH1 0x1F NOT AND SWAP1 SWAP7 ADD SWAP1 SWAP2 ADD SWAP5 POP POP SWAP2 DUP8 ADD SWAP2 PUSH1 0x1 ADD PUSH2 0x812 JUMP JUMPDEST POP SWAP2 SWAP10 SWAP9 POP POP POP POP POP POP POP POP POP JUMP JUMPDEST PUSH1 0x20 DUP1 DUP3 MSTORE PUSH1 0x18 SWAP1 DUP3 ADD MSTORE PUSH32 0x596F7520617265206E6F742077686974656C6973746564210000000000000000 PUSH1 0x40 DUP3 ADD MSTORE PUSH1 0x60 ADD SWAP1 JUMP JUMPDEST PUSH1 0x0 PUSH1 0x1 DUP3 ADD PUSH2 0x8F6 JUMPI PUSH4 0x4E487B71 PUSH1 0xE0 SHL PUSH1 0x0 MSTORE PUSH1 0x11 PUSH1 0x4 MSTORE PUSH1 0x24 PUSH1 0x0 REVERT JUMPDEST POP PUSH1 0x1 ADD SWAP1 JUMP JUMPDEST PUSH4 0x4E487B71 PUSH1 0xE0 SHL PUSH1 0x0 MSTORE PUSH1 0x41 PUSH1 0x4 MSTORE PUSH1 0x24 PUSH1 0x0 REVERT JUMPDEST PUSH1 0x1 DUP2 DUP2 SHR SWAP1 DUP3 AND DUP1 PUSH2 0x927 JUMPI PUSH1 0x7F DUP3 AND SWAP2 POP JUMPDEST PUSH1 0x20 DUP3 LT DUP2 SUB PUSH2 0x947 JUMPI PUSH4 0x4E487B71 PUSH1 0xE0 SHL PUSH1 0x0 MSTORE PUSH1 0x22 PUSH1 0x4 MSTORE PUSH1 0x24 PUSH1 0x0 REVERT JUMPDEST POP SWAP2 SWAP1 POP JUMP JUMPDEST PUSH1 0x1F DUP3 GT ISZERO PUSH2 0x997 JUMPI PUSH1 0x0 DUP2 DUP2 MSTORE PUSH1 0x20 DUP2 KECCAK256 PUSH1 0x1F DUP6 ADD PUSH1 0x5 SHR DUP2 ADD PUSH1 0x20 DUP7 LT ISZERO PUSH2 0x974 JUMPI POP DUP1 JUMPDEST PUSH1 0x1F DUP6 ADD PUSH1 0x5 SHR DUP3 ADD SWAP2 POP JUMPDEST DUP2 DUP2 LT ISZERO PUSH2 0x993 JUMPI DUP3 DUP2 SSTORE PUSH1 0x1 ADD PUSH2 0x980 JUMP JUMPDEST POP POP POP JUMPDEST POP POP POP JUMP JUMPDEST PUSH8 0xFFFFFFFFFFFFFFFF DUP4 GT ISZERO PUSH2 0x9B4 JUMPI PUSH2 0x9B4 PUSH2 0x8FD JUMP JUMPDEST PUSH2 0x9C8 DUP4 PUSH2 0x9C2 DUP4 SLOAD PUSH2 0x913 JUMP JUMPDEST DUP4 PUSH2 0x94D JUMP JUMPDEST PUSH1 0x0 PUSH1 0x1F DUP5 GT PUSH1 0x1 DUP2 EQ PUSH2 0x9FC JUMPI PUSH1 0x0 DUP6 ISZERO PUSH2 0x9E4 JUMPI POP DUP4 DUP3 ADD CALLDATALOAD JUMPDEST PUSH1 0x0 NOT PUSH1 0x3 DUP8 SWAP1 SHL SHR NOT AND PUSH1 0x1 DUP7 SWAP1 SHL OR DUP4 SSTORE PUSH2 0xA56 JUMP JUMPDEST PUSH1 0x0 DUP4 DUP2 MSTORE PUSH1 0x20 SWAP1 KECCAK256 PUSH1 0x1F NOT DUP7 AND SWAP1 DUP4 JUMPDEST DUP3 DUP2 LT ISZERO PUSH2 0xA2D JUMPI DUP7 DUP6 ADD CALLDATALOAD DUP3 SSTORE PUSH1 0x20 SWAP5 DUP6 ADD SWAP5 PUSH1 0x1 SWAP1 SWAP3 ADD SWAP2 ADD PUSH2 0xA0D JUMP JUMPDEST POP DUP7 DUP3 LT ISZERO PUSH2 0xA4A JUMPI PUSH1 0x0 NOT PUSH1 0xF8 DUP9 PUSH1 0x3 SHL AND SHR NOT DUP5 DUP8 ADD CALLDATALOAD AND DUP2 SSTORE JUMPDEST POP POP PUSH1 0x1 DUP6 PUSH1 0x1 SHL ADD DUP4 SSTORE JUMPDEST POP POP POP POP POP JUMP JUMPDEST PUSH4 0x4E487B71 PUSH1 0xE0 SHL PUSH1 0x0 MSTORE PUSH1 0x32 PUSH1 0x4 MSTORE PUSH1 0x24 PUSH1 0x0 REVERT INVALID LOG2 PUSH5 0x6970667358 0x22 SLT KECCAK256 0xF9 0x2E SWAP16 0xA9 PUSH1 0xC9 0x2C CODESIZE 0x49 0xE4 0xBB 0xE2 ADDRESS 0xE5 RETURNDATASIZE PUSH2 0x2918 INVALID 0x4F PC 0xDF CODECOPY PUSH16 0xCB4E85C56024050264736F6C63430008 GT STOP CALLER "},"methodIdentifiers":{"addOperation(uint256,string)":"c5024b53","addToWhitelist(address)":"e43252d7","delReq(uint256)":"17d90dd2","getOperations()":"f948e50a","getSOSNum(uint256)":"cbe76922","isWhiteListed()":"ef674e66","removeFromWhitelist(address)":"8ab1d681","setSOSNum(uint256,uint256)":"b7368f50","setStatus(uint256,uint256)":"82e40813"}}}}}